:100000000C940C010C942B010C942B010C942B01DF
:100010000C942B010C942B010C942B010C942B01B0
:100020000C942B010C942B010C942B010C942B01A0
:100030000C942B010C942B010C942B010C942B0190
:100040000C942B010C942B010C942B010C942B0180
:100050000C942B010C942B010C942B010C94AC1AD6
:100060000C942B010C94C7190C94F5180C942B01CB
:100070000C942B010C942B010C942B010C942B0150
:100080000C942B010C942B010C942B010C942B0140
:100090000C94F2190C9428190C942B010C942B013C
:1000A0000C942B010C942B010C942B010C942B0120
:1000B0000C942B010C942B010C942B010C942B0110
:1000C0000C942B010C942B010C942B010C942B0100
:1000D0000C942B010C942B010C942B010C942B01F0
:1000E0000C942B010C942B010C942B010C946F1489
:1000F0000C947F140C942B010C942B010C9465141C
:100100000C942B010C942B010C942B010C942B01BF
:100110000C942B010C942B010C942B010C942B01AF
:1001200005A84CCDB2D44EB93836A9020C50B991BD
:100130008688083CA6AAAA2ABE000000803F0001CB
:100140000205060741524D3B414E474C453B484F47
:1001500052495A4F4E3B4D41473B48454144465218
:1001600045453B4845414441444A3B00524F4C4C75
:100170003B50495443483B5941573B414C543B50F9
:100180006F733B506F73523B4E6176523B4C4556FA
:10019000454C3B4D41473B56454C3B000102040852
:1001A00010204080201001040802020101020420F6
:1001B0000408102040800102040810204080408084
:1001C00005050505050505050202020202020404F3
:1001D00007070707040404040404060606060606C7
:1001E0000606020200000000250000002B002E0081
:1001F000310034000000000000000000000000009A
:100200000000240000002A002D0030003300000010
:10021000000000000000000011241FBECFEFD1E459
:10022000DEBFCDBF12E0A0E0B2E0E8E4F4E400E01D
:100230000BBF02C007900D92AE35B107D9F726E08B
:10024000AEE5B2E001C01D92A73BB207E1F70E9404
:100250009D1A0C9422220C940000CF92DF92EF9210
:10026000FF920F931F93CF93DF93182F042FD0E0AB
:10027000C62ED12CE12CF12CD01791F0C0E0C11783
:1002800039F01E9AC701B6010E94191BCF5FF7CF44
:100290006CE370E080E090E00E94191BDF5FECCF20
:1002A000DF91CF911F910F91FF90EF90DF90CF9052
:1002B0000895FC0185E5615019F09191890FFBCFFC
:1002C000089540E150E060E070E087E493E00E9430
:1002D000542160E187E493E00E9459019091560314
:1002E000891741F01092470388E893E190934903FE
:1002F000809348030895CF93C82F60E187E493E08B
:100300000E9459018093560340E150E060E070E0A4
:1003100087E493E00E946421C13031F441E064E15C
:100320008FE0CF910C942D01CF91089526E020937A
:10033000D20285E08093D30294E09093D40220937C
:10034000D5028093D6029093D70292E09093E70271
:100350009093E8029093E9029AE09093D8028093F8
:10036000D9021092DA0280E48093DB0289E1809363
:10037000DC0288E18093DD028BE08093DE02109244
:10038000DF021092E00284E18093E10298E0909312
:10039000E2029DE29093E3029EE09093E402809358
:1003A000E50290E59093E60288E28093EA021092DB
:1003B000ED021092EE021092EF029093F00292E39F
:1003C0009093F1028093F2028093F3021092F40270
:1003D0009093F5021092F6021092FC021092FB022A
:1003E0001092FE021092FD02109200031092FF0282
:1003F000109202031092010310920403109203035F
:1004000010920603109205031092F8021092F70260
:100410001092FA021092F902109207030C948503CD
:100420002F923F924F925F926F927F928F929F9204
:10043000AF92BF92CF92DF92EF92FF920F931F93F2
:10044000CF93DF93CDB7DEB766970FB6F894DEBFD4
:100450000FBECDBF1092470345E750E060E170E06A
:1004600082ED92E00E94542165E782ED92E00E94C5
:100470005901909146031F929F931F928F9385E29B
:1004800092E09F938F930E946B1A65E782ED92E052
:100490000E9459010F900F900F900F900F900F90A6
:1004A00090914603891789F08AE492E09F938F9395
:1004B0000E946B1A43E064E686E00E942D010E94D0
:1004C00096010F900F9080E0E8C0C090F102D12C0F
:1004D000E090F00207E813E0612C712CF12C58EA4F
:1004E000852E54E0952EA12CB12C669CC001679CF2
:1004F000900D900D11240F97C89E9001C99E300D4C
:10050000D89E300D1124C9018A509A4F869DD00182
:10051000879DB00D969DB00D112497010E94E01E9D
:10052000A50194010E94AA1EF801219331938F0125
:10053000FFEF6F1A7F0A25E062167104B1F6309161
:10054000F5023D8B44E6431B4E8B8AE0389FB00199
:1005500011247E836D838091F60290E024E630E0E2
:10056000281B390BA901662757FD6095762F4F830D
:10057000588769877A87009144031091450320EDDD
:10058000222E27E0322E201A310A61E773E07A83A7
:100590006983C12CD12C7601FD89EF2FF0E0FC831B
:1005A000EB839F01319521953109A901662757FDFC
:1005B0006095762F4F87588B698B7A8B8B8B9C8BB2
:1005C0003AE0432E512C612C712C48EE842E43E0EE
:1005D000942EA12CB12CC6016B817C81861B970BBC
:1005E0001816190624F097FD04C041E003C04E8997
:1005F00001C04D89889FD001899FB00DB00D112495
:100600006F85788989899A896C0D7D1D8E1D9F1D46
:100610006B877C878D879E872B893C890E94E01E93
:10062000449F90011124442737FD4095542F0E9488
:10063000AA1ECA01B9012F81388549855A85620FE2
:10064000731F841F951F2B853C854D855E850E94F9
:10065000641EA30192010E94AA1EAD81BE81A20F59
:10066000B31F91010E94C91EA50194010E94AA1EF8
:10067000200F311FE981FA8121933193FA83E983B5
:10068000FAE0CF0ED11CE11CF11C2EE6C216D104FB
:10069000E104F10409F09FCF81E066960FB6F8946B
:1006A000DEBF0FBECDBFDF91CF911F910F91FF90A5
:1006B000EF90DF90CF90BF90AF909F908F907F9002
:1006C0006F905F904F903F902F900895CF93C82FD9
:1006D0001092470365E782ED92E00E9459018093F2
:1006E000460345E750E060E170E082ED92E00E9451
:1006F00064210E941002C13031F441E064E18FE0D6
:10070000CF910C942D01CF9108958EE794E09093B2
:100710004303809342038AE194E0909345038093DE
:100720004403109209031092080380E00C946603BE
:100730004F925F926F927F928F929F92AF92BF92F1
:10074000CF92DF92EF92FF92CF93DF9300D000D051
:10075000CDB7DEB76B017C0129013A010E94F21C82
:100760004B015C01C301B2010E94F21C9B01AC0170
:10077000C501B4010E94571C4B015C01B701A601E1
:10078000F7FE07C044275527BA014C195D096E09C9
:100790007F09D301C20177FE07C088279927DC01B2
:1007A00084199509A609B709481759076A077B07ED
:1007B0008CF520E030E44FE054E4C501B4010E9420
:1007C000B71D69837A838B839C8329E23CE54FE8DC
:1007D0005EE3C501B4010E94B71DA50194010E940A
:1007E000B71D20E030E040E85FE30E94F01B9B0172
:1007F000AC0169817A818B819C810E94571C0E9487
:10080000BF1C9B0177FE31C0F7FC2DC09B01285F08
:10081000384F2BC020E030E44FE054E4C501B40170
:100820000E94B71D2B013C01A5019401C501B40133
:100830000E94B71D29E23CE54FE85EE30E94F01BF1
:100840009B01AC01C301B2010E94571C9B01AC018A
:1008500060E070E081E694E40E94EF1B0E94BF1C00
:100860009B01F7FE02C028503740C9010F900F903E
:100870000F900F90DF91CF91FF90EF90DF90CF908E
:10088000BF90AF909F908F907F906F905F904F90B0
:1008900008954F925F926F927F928F929F92AF9244
:1008A000BF92CF92DF92EF92FF924B015C01DC018D
:1008B000CB01B595A795979587953FEDC32E39E563
:1008C000D32E37E3E32E3FE5F32EC81AD90AEA0AFE
:1008D000FB0A20E030E040E05FE3C701B6010E9480
:1008E000B71D2B013C01A7019601C501B4010E946F
:1008F000B71DA70196010E94B71D9B01AC0160E0E6
:1009000070E080E490E40E94EF1B9B01AC01C30106
:10091000B2010E94B71DFF90EF90DF90CF90BF9083
:10092000AF909F908F907F906F905F904F900895C1
:100930002F923F924F925F926F927F928F929F92EF
:10094000AF92BF92CF92DF92EF92FF920F931F93DD
:10095000CF93DF9300D000D0CDB7DEB78C011B0161
:10096000FC0180809180A280B380C480D580E68025
:10097000F7804084518462847384FB01208131813B
:1009800042815381C501B4010E94B71D69837A83F6
:100990008B839C83F1012481358146815781C70176
:1009A000B6010E94B71D9B01AC0169817A818B81E0
:1009B0009C810E94F01B9B01AC01C301B2010E940B
:1009C000EF1BF8016087718782879387F10120818F
:1009D000318142815381C301B2010E94B71D6983F5
:1009E0007A838B839C83F1012085318542855385F1
:1009F000C701B6010E94B71D9B01AC0169817A81D4
:100A00008B819C810E94EF1B9B01AC01C501B4014D
:100A10000E94F01BF8016083718382839383F1014C
:100A20002481358146815781C301B2010E94B71DDF
:100A30002B013C01F1012085318542855385C5019B
:100A4000B4010E94B71D9B01AC01C301B2010E9419
:100A5000F01B9B01AC01C701B6010E94F01BF8011D
:100A600064837583868397830F900F900F900F9008
:100A7000DF91CF911F910F91FF90EF90DF90CF907A
:100A8000BF90AF909F908F907F906F905F904F90AE
:100A90003F902F9008952F923F924F925F926F92C6
:100AA0007F928F929F92AF92BF92CF92DF92EF92FE
:100AB000FF920F931F93CF93DF93CDB7DEB76C9761
:100AC0000FB6F894DEBF0FBECDBF0E94F61A6B01C1
:100AD0007C0180915E0290915F02B601681B790BE8
:100AE00080E090E00E94F01C23ED39EE47EA50E3ED
:100AF0000E94B71D2B013C01D0925F02C0925E02A2
:100B00009E012F5F3F4F590130E0832E32E0932E3C
:100B100004EE13E0C12CD12C76011D861501D801FD
:100B200052966D917C915397882777FD8095982FE9
:100B30000E94F21CA30192010E94B71DF50161936E
:100B40007193819391935F01F40180819181A281DE
:100B5000B381AC01BD01F4E0759567955795479554
:100B6000FA95D1F7841B950BA60BB70BF801408DB6
:100B7000518D662757FD6095762F840F951FA61F10
:100B8000B71FF40181939193A193B1934F0124E096
:100B9000B595A795979587952A95D1F7F8018193F3
:100BA00091938F019C01DC010E94C91EC60ED71EC5
:100BB000E81EF91EFD85FF5FFD87F33009F0AFCF1A
:100BC000B1018EE892E00E949804B1018AE692E0B9
:100BD0000E949804A4E6B0E0A70196010E94E71ED7
:100BE00020E030E041E050E00E94AA1E490189E483
:100BF000881A91085EE8E52E52E0F52E62E8A62EEE
:100C000062E0B62E7AE6C72E72E0D72EE6E72E2EE9
:100C1000E2E03E2E04EE13E01D869CE3891691046B
:100C200040F520E030E046E154E4D7016D917D913C
:100C30008D919C910E94B71D2B013C01F8016081B0
:100C40007181882777FD8095982F0E94F21C9B0167
:100C5000AC01C301B2010E94F01B20E037E14AED74
:100C60005AE30E94B71DD7016D937D938D939C939A
:100C70001397F70161917191819191917F010E9488
:100C8000BF1CD5016D937D938D939D935D0120E0F5
:100C900030E04AE753E4F6016081718182819381FB
:100CA0000E94B71D2B013C01D8011C966D917C91CF
:100CB0001D97882777FD8095982F0E94F21C9B0135
:100CC000AC01C301B2010E94F01B20EC3CE842E8F9
:100CD0005BE30E94B71DF601619371938193919339
:100CE0006F010E94BF1CD1016D937D938D939D93E5
:100CF0001D01BD85BF5FBD870E5F1F4FB33009F07B
:100D00008CCF80918A0290918B02A0918C02B0913D
:100D10008D028D879E87AF87B88B8091C703AD8585
:100D2000BE85A93EB10514F0806801C08F7780931D
:100D3000C703C0908202D0908302E0908402F090BA
:100D40008502A7019601C701B6010E94641E4B01EE
:100D50005C012D853E854F855889CA01B9010E94E5
:100D6000641E860E971EA81EB91E409086025090E3
:100D700087026090880270908902A3019201C301EA
:100D8000B2010E94641E680D791D8A1D9B1D0E9480
:100D9000F21C0E944904698B7A8B8B8B9C8B60932D
:100DA0009A0270939B0280939C0290939D022D85E2
:100DB0003E854F855889C701B6010E9498039093DC
:100DC000D2038093D103C501B4010E94F21C4B01F0
:100DD0005C010E944904A50194010E94B71D0E9474
:100DE000BF1C9B01AC01C301B2010E949803909308
:100DF000D4038093D3038091760290917702A091DF
:100E00007802B09179028D8B9E8BAF8BB88F8091D9
:100E10007E0290917F02A0918002B0918102898F21
:100E20009A8FAB8FBC8F20916E0230916F024091F0
:100E3000700250917102C501B4010E94B71D4B01AF
:100E40005C012D893E894F89588DC701B6010E94EA
:100E5000641E2B013C01298D3A8D4B8D5C8D6D8577
:100E60007E858F8598890E94641E460E571E681ED7
:100E7000791EC301B2010E94F21C209192023091AE
:100E8000930240919402509195020E94B71D9B01DC
:100E9000AC01C501B4010E94EF1B29893A894B8935
:100EA0005C890E94B71D0E94BF1C4B015C01298D0B
:100EB0003A8D4B8D5C8DC701B6010E94641E6B019B
:100EC0007C012D893E894F89588D6D857E858F8562
:100ED00098890E94641EC61AD70AE80AF90AA50171
:100EE0009401C701B6010E94980320910803309134
:100EF0000903280F391FC9016AE070E00E94741EBF
:100F00007093D6036093D50320E030E040E85BE3C4
:100F10006091960270919702809198029091990247
:100F20000E94B71D20E030E048EC52E40E94B71D5B
:100F30000E94BF1C60931C0284E690E0861B91090E
:100F400067FD939597FD12C09C018536910514F0BD
:100F500024E630E048E2429FC001439F900D1124F7
:100F600043E0959587954A95E1F702C080E090E0CF
:100F70009093C1038093C0036C960FB6F894DEBFC4
:100F80000FBECDBFDF91CF911F910F91FF90EF90DA
:100F9000DF90CF90BF90AF909F908F907F906F9099
:100FA0005F904F903F902F900895AF92BF92CF9255
:100FB000DF92EF92FF920F931F93CF93DF9300D0B6
:100FC00000D000D0CDB7DEB70E941A170E944B05A3
:100FD0000E9466178091F6039091F7039A838983A4
:100FE0008091F8039091F9039C838B838091FA039D
:100FF0009091FB039E838D830E94F61A6093660294
:101000007093670280936802909369020E945F0860
:1010100010E00E94F61A2091660230916702621B6E
:10102000730B6A38724010F411E0F3CF111109C04C
:101030008091C2039091C30301969093C303809360
:10104000C2030E94661766EFC62E63E0D62EDE014D
:1010500011967D01E0E6F2E00AEE13E040E073E075
:10106000A72EB12CD6012D913D916D01D7018D9107
:101070009D917D01280F391F80819181820F931FDF
:10108000B5010E94741ED8016D937D938D01359535
:101090002795219331934F5F433021F726960FB662
:1010A000F894DEBF0FBECDBFDF91CF911F910F919E
:1010B000FF90EF90DF90CF90BF90AF9008952F9268
:1010C0003F924F925F926F927F928F929F92AF92D8
:1010D000BF92CF92DF92EF92FF920F931F93CF9325
:1010E000DF93CDB7DEB728970FB6F894DEBF0FBEFB
:1010F000CDBF2091B0033091B1032D3D05E0300705
:10110000C4F06091F402203D17E0310774F4A901A6
:101110004C5D5540649FC001659F900D1124892F3F
:101120008695E0E89E2E981A06C070E8972E961ACB
:1011300002C050E8952E4090F202512C6AEA73E00A
:101140007A836983E2E9F3E014ED212E12E0312E77
:1011500080E090E00CED602E05E0702E40E8842EDB
:10116000A981BA814D915D91BA83A9834D3DB5E0C6
:101170005B072CF0403D07E050075CF007C0B3016F
:10118000641B750B643F11E0710734F064EF71E08C
:1011900006C0BA016C5D75406B30710518F06A507D
:1011A000710902C060E070E0823009F469C05B013F
:1011B000AA0CAB2CAA1CBB08B1947501EE0CFF1C49
:1011C000D701A957BC4FCD90DC907501EE0CFF1CE8
:1011D000870107571C4FD801ED90FC90EC18FD08D3
:1011E000D501B695BA2FAA27B795A7955B01AA1A7C
:1011F000BB0AEA9CD001EB9CB00DFA9CB00D112407
:10120000AA0FAB2FAA1FBB0BB195AC0DBD1DB183AF
:10121000A083649DD001659DB00D749DB00D112417
:101220006B2F6695B82DB61BB99DB0011124660FC2
:10123000672F661F770B7195D1011297FC90F69E70
:101240006001F79ED00C1124CC0CCD2CCC1CDD08F9
:10125000D1948C01075A1C4FD801CC92D101FC903B
:10126000F69E8001F79E100D1124000F012F001F24
:10127000110B1195BC01695A7C4FDB010C9302C024
:10128000718360834C3D55403CF4408151815195C0
:1012900041955109518340830196329603E0200E17
:1012A000311C8330910509F05BCF2C3414E03107F9
:1012B0003CF0213D47E034072CF020ED37E002C040
:1012C0002CE434E02C543440AFEFB9E00E94D11E3E
:1012D00024E833E040E050E00E94881E832F9927E5
:1012E000FC01EE0FFF1FEF58FC4FA081B181FC0104
:1012F000EE0FFF1FED58FC4F608171816A1B7B0B65
:10130000982F8827281B390B629FC001639F900D7F
:10131000729F900D1124892F99278A0F9B1F9093FC
:101320009903809398031091C70313FF76C06091CF
:10133000D5037091D60380910E0490910F04681B21
:10134000790B882777FD8095982F0E94F21C29E35E
:101350003AEF4EE85CE30E94B71D6B017C010E94EE
:10136000541C69837A838B839C83C701B6010E94D6
:101370001A1E2B013C0160919403709195038827FC
:1013800077FD8095982F0E94F21C4B015C016091C3
:10139000920370919303882777FD8095982F0E9480
:1013A000F21C6B017C0129813A814B815C810E9496
:1013B000B71D6D837E838F839887A3019201C5013A
:1013C000B4010E94B71D9B01AC016D817E818F81AC
:1013D00098850E94EF1B0E94BF1C7093930360933B
:1013E000920329813A814B815C81C501B4010E943D
:1013F000B71D4B015C01A3019201C701B6010E9418
:10140000B71D9B01AC01C501B4010E94F01B0E94F5
:10141000BF1C70939503609394038091C1028F5F0A
:101420008093C1028091160490911704892B31F4A6
:101430008091120490911304892B11F01E9A08C018
:101440008091C60383FD2E988091C60381FD2E9A5C
:1014500040911C0450911D0460911E0470911F0462
:101460008091BD029091BE02A091BF02B091C002D6
:1014700084179507A607B70700F58091C60317FDE7
:1014800019C0877F8093C6031E9A80911C04909197
:101490001D04A0911E04B0911F0480569947AE4FC1
:1014A000BF4F8093BD029093BE02A093BF02B09342
:1014B000C00203C088608093C60328960FB6F894D4
:1014C000DEBF0FBECDBFDF91CF911F910F91FF9077
:1014D000EF90DF90CF90BF90AF909F908F907F90D4
:1014E0006F905F904F903F902F900C949C1340E032
:1014F00052EC61E070E080E00E946C1940E052EC38
:1015000061E070E081E00E946C1961E082E20E947B
:10151000B51B0E9482100E946101109247030E9435
:10152000100280914703882321F081508093470364
:10153000F6CF0E9461010E941002409147034F5F65
:1015400068E282E00E942D010E942E140E94DB18A6
:101550000E94F61A70931B0460931A0480E092E0D4
:10156000909313048093120488EC90E090931504F8
:10157000809314048091C70380688093C703089503
:1015800080911204909113042091C603892BC1F419
:1015900023FF16C021FD1EC08091C70380FD1AC025
:1015A00022602093C6038091D5039091D603909337
:1015B0000F0480930E0490931104809310040895F7
:1015C00021FD08C041E06FEF82E00E942D0181E023
:1015D0008093CA0208958091C60381FF03C08D7F66
:1015E0008093C60308952F923F924F925F926F921D
:1015F0007F928F929F92AF92BF92CF92DF92EF92A3
:10160000FF920F931F93CF93DF93CDB7DEB7A397CE
:101610000FB6F894DEBF0FBECDBF80911C04909131
:101620001D04A0911E04B0911F044091B902509175
:10163000BA026091BB027091BC02481759076A0751
:101640007B0708F0EDC1805E914BAF4FBF4F809399
:10165000B9029093BA02A093BB02B093BC020E945D
:10166000BA148091BA039091BB03C3978CF1809117
:10167000C60381FF2DC08CED95E09093AB03809362
:10168000AA039093AD038093AC039093AF03809330
:10169000AE0380914203909143039093B1038093F2
:1016A000B0038091BA039091BB03893C91053CF053
:1016B0000E94EB0A8091C6038E7F8093C6038091BF
:1016C000BC039091BD0301969093BD038093BC032E
:1016D0008091BA039091BB03C39724F08091C60315
:1016E00081FFB2C48091BA039091BB03019690939D
:1016F000BB038093BA03EAEAF3E040E0842F90E072
:101700009595879595958795482F219131912D3401
:1017100004E0300724F04068213C37400CF440647A
:1017200023E0E23BF20751F78091B802481308C06A
:101730008091B7028A3F30F48F5F8093B70202C076
:101740001092B7024093B8028091B0039091B10318
:101750008D34944064F51092B4021092B30210924A
:10176000B6021092B5021092AF021092B00210921F
:10177000B1021092B2021092AC021092AB0210921F
:10178000AE021092AD028091FB029091FC02892B77
:1017900071F0909108048091C603992329F080FF8D
:1017A00003C00E94C00A03C081FD0E94EB0A809121
:1017B000B702843109F070C08091C60381FF0FC069
:1017C0008091FB029091FC02892B09F065C0809109
:1017D000B8028F3509F060C00E94EB0A5DC020910D
:1017E000B802273539F480E092E090931304809397
:1017F000120409C02B3639F40E94F61A70931B04A8
:1018000060931A041BC08091FB029091FC02892B0B
:1018100029F42F3619F40E94C00A10C0273939F470
:1018200080E092E0909317048093160407C0273A53
:1018300029F48091C80381608093C8038091B80225
:101840008B3B31F48091F9029091FA02029607C025
:10185000873B51F48091F9029091FA02029790939C
:10186000FA028093F90213C08E3B31F48091F702A3
:101870009091F802029607C08D3B71F48091F702B7
:101880009091F80202979093F8028093F70281E01A
:101890000E9466031092B702A2EBB3E080E090E0F2
:1018A00020E030E04D915D9161E070E0453AE6E086
:1018B0005E0714F460E070E0FC0132968B0102C018
:1018C000000F111FEA95E2F7F80161E070E0443182
:1018D00015E0510714F060E070E0082E02C0660FBA
:1018E000771F0A94E2F76E2B7F2B45515540E1E0BC
:1018F000F0E04F38514010F0E0E0F0E0AC014F5F15
:101900005F4F8F0102C0000F111F4A95E2F7A80137
:10191000462B572B242B352B03968C30910511F633
:10192000EBEFF2E0A8E0B4E0819191918223932360
:1019300041E0892B09F440E04D9313E0E730F107D3
:1019400099F780910904882371F08091C60385FD81
:101950000FC01092AC021092AB021092AE02109225
:10196000AD02806203C08091C6038F7D8093C60361
:1019700080910A04882389F08091C6038F7D80932B
:10198000C60386FD0FC01092AC021092AB021092FB
:10199000AE021092AD02806403C08091C6038F7BBB
:1019A0008093C60380910804811105C08091C6030D
:1019B00081608093C60380910B04882381F080911D
:1019C000C60387FD11C080688093C6038091D5034C
:1019D0009091D603909311048093100405C08091D8
:1019E000C6038F778093C60380910C04882331F05F
:1019F0008091C70383FD07C0886003C08091C7033F
:101A0000877F8093C70380910D048823D1F1809153
:101A1000D5039091D60390930F0480930E0431C0A8
:101A20008091AA02853018F085508093AA02809197
:101A3000AA028230B9F028F4882341F0813069F09D
:101A400020C08330A1F08430B9F01BC081E08093C6
:101A5000AA020E94E517811114C08091AA028F5F2B
:101A60008093AA028091AA028F5F8093AA0280913C
:101A7000AA028F5F8093AA028091AA028F5F80934F
:101A8000AA020E94D5070E94F61A60931C04709364
:101A90001D0480931E0490931F0420911A0430911A
:101AA0001B04AB01421B530B5093190440931804C1
:101AB00070931B0460931A0440919603509197030E
:101AC0009A012B5B3F4F6091C6038091D5039091A3
:101AD000D6032B38310550F567FF28C0209110043C
:101AE00030911104821B930B8D34AFEF9A0714F4DD
:101AF00088599E4F843B910514F08856914020915F
:101B0000C70327FF17C07091EA02789F9001799F61
:101B1000300D1124F5E035952795FA95E1F7421B34
:101B2000530B509397034093960304C09093110472
:101B300080931004E62FE076EB8BEE2371F080911A
:101B40009803909199032091C0033091C103820FB3
:101B5000931F909399038093980366FF23C080900E
:101B600094039090950397FE03C0919481949108FB
:101B7000809192039091930397FF03C09195819573
:101B800091099401881699060CF49C012130F2E029
:101B90003F0714F020E032E04901AA2497FCA0940A
:101BA000BA2C03C0812C912C54019091E7028091B2
:101BB000E90225E0829F8001112418870F83119587
:101BC000019511091D8B0C8B8091E802E2E9F3E08D
:101BD000FF8FEE8F0AEE13E01D8F0C8FE3EBF2E028
:101BE000FA83E98309E513E01B8F0A8FE6EAF2E046
:101BF000FA8BE98B02EA12E0188B0F87EEE9F2E02C
:101C0000FE87ED8707E513E0198F088FEBE6F3E019
:101C1000FF8BEE8B03ED12E01C870B87E2EDF2E009
:101C2000FA87E9870BEA12E01E830D831C821B8270
:101C3000E92FF0E0F9A3E8A3082F10E01BA30AA303
:101C4000EE8DFF8D41915191FF8FEE8F440F551F07
:101C5000EC8DFD8D01911191FD8FEC8FE981FA8161
:101C600020813181C80117FF04C088279927801B74
:101C7000910B81389240B4F4CA01801B910B820F02
:101C8000931F81382EE3920714F080E89EE380389A
:101C900031EC930714F480E891ECE981FA819183A7
:101CA000808304C0E981FA8111821082E981FA817E
:101CB00080819181880F892F881F990BEB85FC8586
:101CC0002081289F1001299F300C112466E0359453
:101CD00027946A95E1F7E985FA85208130E0DA01F9
:101CE0000E94E01E6B017C0176E0F594E794D794A6
:101CF000C7947A95D1F7F6012B89222309F47CC089
:101D0000453F31E0530714F0A4EFB1E0AC304EEFA3
:101D1000B40714F4ACE0BEEF8B819C818F529C4FD2
:101D2000FC0180819181A81BB90B8B819C818E5213
:101D30009D4FFC0185A196A1A80FB91FED81FE81E1
:101D4000208131812A0F3B1F2131F7E23F0714F038
:101D500020E137E2A901403F28ED520714F440EF9B
:101D600058EDED81FE815183408328A139A10E9465
:101D7000E01E27E095958795779567952A95D1F789
:101D8000EC89FD896E177F0744F0FB012F813885B0
:101D90002617370724F4F90102C0EC89FD892AA12E
:101DA0003BA1DA010E94E01E2B013C014CE075943E
:101DB0006794579447944A95D1F7D101A419B5096E
:101DC000A50194010E94F21EA9E09595879577954B
:101DD0006795AA95D1F71B01240C351CD601AE1BC3
:101DE000BF0B0E94F21EB9E0959587957795679590
:101DF000BA95D1F7E60FF71FAA8DBB8D2D91BB8F3A
:101E0000AA8F30E0D8010E94E01E26E095958795C4
:101E1000779567952A95D1F7AF01461B570BE9894E
:101E2000FA89808191819801281B390BC90101939E
:101E30001193FA8BE98BEF85F88920813181ED854B
:101E4000FE85A081B181A20FB31FA80FB91F2193F6
:101E50003193FE87ED87EF85F88981939193F88B15
:101E6000EF87E88DF98D2191F98FE88F30E00E949E
:101E7000E01E35E095958795779567953A95D1F76A
:101E8000420D531D461B570BEE89FF894193519319
:101E9000FF8BEE8B0B811C810E5F1F4F1C830B830E
:101EA000E981FA813296FA83E9830B851C850D5FFF
:101EB0001F4F1C870B87E985FA853396FA87E987D8
:101EC0000D811E810E5F1F4F1E830D83EB81FC81F0
:101ED000349709F0B5CE2091960330919703A091E5
:101EE000F302B0E01F96AA0FBB1F0E94C91E05E0B7
:101EF00095958795779567950A95D1F72091EE038B
:101F00003091EF03AB01421B530BC090AF02D09056
:101F1000B002E090B102F090B2022091D902FB0130
:101F200077FF04C0EE27FF27E61BF70BF39744F576
:101F300030E0DA010E94E01E6C0D7D1D8E1D9F1D9C
:101F40006F3FFFEF7F078F07FFE09F0724F06EEFE3
:101F50007FEF8FEF9FE0DC01CB0182309105A1057F
:101F600000EFB00724F482E090E0A0E0B0EF8093AF
:101F7000AF029093B002A093B102B093B20208C036
:101F80001092AF021092B0021092B1021092B202FF
:101F90002091D80230E0DA010E94E01EA6E095957B
:101FA000879577956795AA95D1F72091DA024CE24B
:101FB00051E0421B510922273327241B350B62179E
:101FC00073072CF09B01461757070CF49A01809178
:101FD000AF029091B002A091B102B091B202FDE0C7
:101FE000B595A79597958795FA95D1F786301FEF08
:101FF000910734F08B3F91052CF08AEF90E002C0FE
:1020000086E09FEF820F931F9093700380936F037E
:102010000E94EA10A3960FB6F894DEBF0FBECDBFA4
:10202000DF91CF911F910F91FF90EF90DF90CF90B4
:10203000BF90AF909F908F907F906F905F904F90E8
:102040003F902F900C942C100E94EB0A8091C603B5
:102050008E7F8093C60346CB80915B0390915C0397
:102060008B3124E092071CF0805E934002C080E038
:1020700090E0909389008093880080915D03909117
:102080005E038B3124E092071CF0805E934002C017
:1020900080E090E0909399008093980080915F0396
:1020A000909160038B3124E092071CF0805E934096
:1020B00002C080E090E090939D0080939C0080910E
:1020C0006103909162038B3124E092071CF0805EE3
:1020D000934002C080E090E090939B0080939A0030
:1020E000089590935C0380935B0390935E038093C9
:1020F0005D039093600380935F03909362038093EA
:1021000061030895CF93DF93CDE1D2E061E089913F
:102110000E94B51B82E0C132D807C1F780918000D0
:102120008068809380008091900080688093900008
:1021300080919000886080939000809190008062F0
:102140008093900080918600909187008F6F9360BC
:1021500090938700809386008091960090919700DD
:102160008F6F93609093970080939600809180008A
:102170008E7F8093800080918000826080938000B9
:1021800080918100817F80938100809181008161B5
:1021900080938100809190008E7F80939000809149
:1021A000900082608093900080919100817F809365
:1021B00091008091910081618093910088EE93E07D
:1021C0000E9471106CE271E080E090E0DF91CF91AD
:1021D0000C94191BEF92FF920F931F93CF93DF93F1
:1021E000609198037091990380916B0390916C03B7
:1021F000AB01481B590BA0916D03B0916E03E091A8
:102200006F03F09170039A012A0F3B1F2E1B3F0BA7
:1022100030935C0320935B034A1B5B0B4E0F5F1FE5
:1022200050935E0340935D03860F971FBC016A0FB6
:102230007B1F6E0F7F1F7093600360935F038A1B89
:102240009B0B8E1B9F0B909362038093610364171B
:1022500075070CF4BA01621773070CF4B9019B01FE
:10226000681779070CF49C01409144035091450391
:10227000E090B003F090B1031091C703117000918A
:10228000C6030270EBE5F3E060ED77E0621B730BD1
:10229000C8EED3E0213D87E0380734F0808191819A
:1022A000860F971F91838083808191818417950782
:1022B0003CF0813DA7E09A0724F080ED97E001C053
:1022C000CA01918380838CE4E81684E0F80624F444
:1022D000111102C051834083011102C0D183C08318
:1022E0003296A3E0E336FA07A9F6DF91CF911F916A
:1022F0000F91FF90EF900895E091250481E08E0FFB
:1023000080932504F0E0E95DFB4F80810895CF9331
:10231000C82F682F80E00E94511A909126049C27B4
:1023200090932604CF910895CF93DF93D82FC62F93
:1023300084E20E9487118DE40E948711DD2311F051
:1023400081E201C08EE30E948711109226048C2F37
:102350000E94871180912404DF91CF910C94871102
:10236000682F80E00C949411809126040E948711BC
:1023700080E00C945B19CF93DF93EC010E940E1F59
:102380000E94B011FE018491882331F0FE018491F6
:102390000E9487112196F6CFDF91CF910895EF9299
:1023A000FF921F93CF93DF9300D0CDB7DEB7182FE6
:1023B000862F69839A830E94B011E12E9A81F92EAB
:1023C0006981160F1E1531F0F70181917F010E947E
:1023D0008711F8CF0F900F90DF91CF911F91FF9051
:1023E000EF900895EF92FF920F931F93CF93DF9397
:1023F0001F92CDB7DEB7082F162F80E099830E9479
:10240000B011E02E9981F92E100F1E1531F00E94A7
:102410007C11F70181937F01F8CF0F90DF91CF916D
:102420001F910F91FF90EF9008950F931F93CF93FB
:10243000DF93CDB7DEB766970FB6F894DEBF0FBE59
:10244000CDBF80912404843709F423C188F58C36EC
:1024500009F40FC1B8F4863609F4FBC038F48436A9
:1024600009F4B7C0853609F4C1C055C1883609F4EE
:10247000FCC008F4F2C0893609F04DC160E18AEA77
:1024800093E046C1803709F400C148F48E3609F460
:10249000F4C008F0F6C066E087ED93E039C18237FA
:1024A00009F467C008F00AC16CE08BEF92E030C11C
:1024B0008D3C09F40EC1C8F4883C81F160F4873783
:1024C00009F4ECC0883709F4CCC0853709F023C182
:1024D0008CE691E0E0C08B3C51F178F58A3C09F044
:1024E0001AC16EE182ED92E025C0833D09F46DC012
:1024F00040F48F3C31F108F4F7C0803D09F4E2C0AC
:102500000AC18A3F09F4FAC08E3F09F4FEC0843D37
:1025100009F001C168E38AE093E00CC060E18AE958
:1025200093E00E94F21182E380939103F8C06CE083
:102530008BEF92E00E94F211F2C067E080EF92E030
:10254000F9CF66E1CE0101960E94F2118B819C8148
:10255000909345038093440389859A859093430320
:102560008093420389899A89909309038093080391
:10257000D6C08091BE039091BF039A8389838091D6
:102580004403909145039C838B8380ED97E09E8369
:102590008D8388EE93E098878F838091420390919A
:1025A00043039A8789871C861B861D861E861F8685
:1025B000188A80910803909109039A8B898B1B8A52
:1025C0001C8A1D8A1E8A66E10EC062E080E194E0EA
:1025D000B1CF86EE898383E08A831B821C821D82B1
:1025E0001E821F8267E0CE01019692C0809118047E
:1025F000909119049A8389838091C4039091C503B3
:102600009C838B8385E090E09E838D832091C6031D
:1026100025FD04C080E090E0DC0104C082E090E091
:10262000A0E0B0E026FD846027FD88603091C703FC
:1026300033FD806130910D043111806221FD816094
:102640008F839887A987BA87809147038B876BE030
:10265000CACF62E184EE93E05BC060E18CE092E07F
:1026600057C068E38AE093E053C060E18BE593E0F4
:102670004FC066E081ED93E04BC067E08DED93E0E5
:1026800047C067E080EF92E043C06EE182ED92E0E8
:102690003FC084E491E00E94BB1141C086E00E94EB
:1026A000B0110EE311E0F80184910E9487110F5FD1
:1026B0001F4FF1E004341F07B1F731C068E08DE12E
:1026C00092E026C08091C60381FD1BC00E94960146
:1026D00018C08091C60381FD14C080E092E0909301
:1026E0001704809316040DC08091C60381FD09C0B4
:1026F0008091C80381608093C80303C081E00E9479
:10270000660380E00E94B0110AC068E089EC93E0A3
:102710000E94CF1104C060E081E00E9494110E94E9
:10272000B41166960FB6F894DEBF0FBECDBFDF9131
:10273000CF911F910F910895FF920F931F93CF9305
:10274000DF9380E00E94371AC5E0D0E004E010E09B
:10275000FF24FA94F80E882309F47AC080E00E94DE
:10276000441A8F3408F074C080E00E941D1A209132
:102770002204309123042115310559F421E030E081
:10278000843211F020E030E03093230420932204BF
:102790005DC02130310529F48D3459F482E090E098
:1027A0000AC02230310561F48C3319F483E090E0E3
:1027B00002C080E090E0909323048093220446C0FE
:1027C00023303105A1F4813428F0109223041092B3
:1027D00022043CC08093210410922004109225040E
:1027E0008093260410932304009322042FC02430E6
:1027F000310561F4809324049091260498279093E6
:102800002604D0932304C093220420C02530310530
:10281000E9F4E09120042091210490912604E2172C
:1028200060F498279093260491E09E0F90932004E3
:10283000F0E0E95DFB4F808309C0981302C00E945D
:1028400015121092230410922204F12C8F2D80CFA8
:10285000DF91CF911F910F91FF9008950F931F93D8
:10286000CF93DF9380E8E9E6F4E0DF011D928A95DB
:10287000E9F7E9E3F1E08081816080830EE411E013
:10288000F8011082C2E4D1E08881807E886088836C
:1028900061E070E080E090E00E94191BE4E4F1E068
:1028A0008081806280838CE4D8018C93E8E4F1E03D
:1028B0008081807E856180838881807E8660888338
:1028C000DF91CF911F910F9108951F920F920FB634
:1028D0000F9211240F900FBE0F901F9018951F920A
:1028E0000F920FB60F9211248F938091460180931F
:1028F00067048F910F900FBE0F901F9018951F9235
:102900000F920FB60F9211240BB60F922F933F9395
:102910004F935F936F937F938F939F93AF93BF93E7
:10292000CF93DF93EF93FF938091460187FF0DC014
:10293000C0917B01D0E0AE0160E871E089E694E0EF
:102940000E94171FC959DB4F1882FF91EF91DF9149
:10295000CF91BF91AF919F918F917F916F915F9137
:102960004F913F912F910F900BBE0F900FBE0F9084
:102970001F90189580916804803178F01092680457
:1029800080E1E9E6F4E0AAEAB3E001900D928A95CD
:10299000E1F71092BB031092BA0320919103222316
:1029A000A9F0EAE9F3E0AAEAB3E0819191918538D0
:1029B00033E093071CF011969C938E93129683E05C
:1029C000EA3AF80791F72850209391030895589A0E
:1029D000599A1092B9008CE08093B80084E08093FB
:1029E000BC0008958FEF90E02091BC0027FD18C037
:1029F0000197D1F71092BC000E94F61A60931C0553
:102A000070931D0580931E0590931F058091C4034C
:102A10009091C50301969093C5038093C4030895D4
:102A200008950F931F93CF93DF931F92CDB7DEB717
:102A30000CEB10E094EAF801908389830E94F21471
:102A400089818093BB0084E8F80180830F90DF9137
:102A5000CF911F910F910C94F2148093BB0084E8E6
:102A60008093BC000C94F214CF93C82F882311F0EC
:102A700084EC01C084E88093BC000E94F214809131
:102A8000BB00C11103C094E99093BC00CF9108959D
:102A9000CF92DF92EF92FF920F931F93CF93DF932A
:102AA00000D0CDB7DEB77A01880F816069837A8361
:102AB0000E9411158701015011096981C62E7A8182
:102AC000D72E0F3FFFEF1F0769F081E001151105B9
:102AD00009F480E00E943415F60181936F010150E2
:102AE0001109EFCFC7010F900F90DF91CF911F9188
:102AF0000F91FF90EF90DF90CF900895CF92DF92EB
:102B0000FF920F931F93CF93DF931F92CDB7DEB742
:102B1000F82E6A018901880F69830E941115698165
:102B2000862F0E942D15A801B6018F2D0F90DF91E1
:102B3000CF911F910F91FF90DF90CF900C9448158B
:102B400026E030E040E255E00C947E15CF93DF9311
:102B500000D0CDB7DEB7880F4A8369830E94111574
:102B60006981862F0E942D154A81842F0E942D1580
:102B700084E98093BC000F900F90DF91CF9108956E
:102B8000DF92EF92FF920F931F93CF93DF93809189
:102B9000120490911304892B09F454C0CFE0D5E0BE
:102BA00036EFE32E33E0F32E02E014E0D12C209137
:102BB000120430911304211582E0380721F41882A1
:102BC00019821A821B82F70180819181AA2797FDC1
:102BD000A095BA2F488159816A817B81840F951F06
:102BE000A61FB71F88839983AA83BB831182108293
:102BF000F801118210822130310589F49F5FAF4FB7
:102C0000BF4F29E0B595A795979587952A95D1F758
:102C10009183808341E06FE08AE00E942D01D3948C
:102C20002496F2E0EF0EF11C0E5F1F4F83E0D812E6
:102C3000BECF8091120490911304019790931304D6
:102C400080931204E2E0F4E0C6EFD3E0A9E0B5E03F
:102C50008191919128813981281B390B4D915C918B
:102C60001197CA01805293402817390734F0805CCD
:102C7000994F281739070CF4C901899399938D93BB
:102C80009D9384E0E830F80719F7DF91CF911F9109
:102C90000F91FF90EF90DF900895FF920F931F9395
:102CA000CF93DF932091160430911704211531053D
:102CB00009F486C0EDEFF4E0CCEFD3E008E413E0D4
:102CC000F12C211582E0380721F410821182128242
:102CD000138248815981662757FD6095762F808140
:102CE0009181A281B381840F951FA61FB71F819385
:102CF0009193A193B19319921992D8011D921D92AB
:102D00008D01F394B3E0FB12DCCF2130310509F0E3
:102D10004EC08091FD049091FE04A091FF04B091FB
:102D200000059F5FAF4FBF4F49E0B595A7959795B9
:102D300087954A95D1F790934903809348038091F2
:102D4000010590910205A0910305B09104059F5FD4
:102D5000AF4FBF4F59E0B595A795979587955A9571
:102D6000D1F790934B0380934A038091050590918E
:102D70000605A0910705B09108059F5FAF4FBF4FB3
:102D800069E0B595A795979587956A95D1F79A9536
:102D900090934D0380934C031092F8021092F70227
:102DA0001092FA021092F90281E00E947B01809158
:102DB00016049091170401979093170480931604BA
:102DC0008091FC039091FD032091480330914903C9
:102DD000821B930B9093FD038093FC038091FE0371
:102DE0009091FF0320914A0330914B03821B930B78
:102DF0009093FF038093FE0380910004909101045F
:102E000020914C0330914D03821B930B909301044E
:102E100080930004DF91CF911F910F91FF9008954F
:102E200047E560E28EE10E94A61540E061E28EE196
:102E30000C94A61588E48093B80068EA8EE10E949D
:102E4000A0158091210590E0982F882720912005DA
:102E5000822B919581959109E4E095958795EA9566
:102E6000E1F79093FD038093FC038091230590E0AC
:102E7000982F882720912205822B91958195910981
:102E8000A4E095958795AA95E1F79093FF03809329
:102E9000FE038091250590E0982F88272091240536
:102EA000822B24E0959587952A95E1F7909301046C
:102EB000809300040C944D164FE060E28AE60E9475
:102EC000A61540E363E28AE60C94A61588E4809395
:102ED000B80068EA8AE60E94A0158091210590E07A
:102EE000982F882720912005822B91958195910913
:102EF0009093F9038093F8038091230590E0982F35
:102F0000882720912205822B9093F7038093F60364
:102F10008091250590E0982F882720912405822B09
:102F20009195819591099093FB038093FA030C94FA
:102F3000C01548E064E28EE10E94A61540E065E21B
:102F40008EE10E94A61540E066E28EE10E94A61581
:102F500044E063E28EE10E94A61549E062E18EE161
:102F60000E94A61581E080931B05089568E88EE114
:102F70000E94A0158091210590E0982F882720912C
:102F80002005822B9195819591099093F10380936F
:102F9000F0038091230590E0982F88272091220547
:102FA000822B9195819591099093F3038093F2037D
:102FB0008091250590E0982F882720912405822B69
:102FC0009093F5038093F4030895EF92FF920F938B
:102FD0001F93CF93DF9380911C0490911D04A091C7
:102FE0001E04B0911F044091F9045091FA046091BD
:102FF000FB047091FC0484179507A607B70708F433
:10300000D2C080569947AE4FBF4F8093F90490933A
:10301000FA04A093FB04B093FC048CE08093B80006
:103020000E94B6176091F0037091F1034091F20392
:103030005091F3032091F4033091F5038091C8037C
:1030400080FF2FC08091F9049091FA04A091FB04B5
:10305000B091FC048093F5049093F604A093F704D8
:10306000B093F804EEE4F3E000EF13E0CFEED4E029
:1030700089EEE82E84E0F82E11921192D8018D91FC
:103080009D918D0189939993D7018D939D937D0196
:10309000B3E0E435FB0781F78091C8038E7F80930E
:1030A000C80380911B058823F1F080914E03909115
:1030B0004F03681B790B7093F1036093F0038091C9
:1030C000500390915103481B590B5093F3034093C5
:1030D000F2038091520390915303281B390B3093D4
:1030E000F5032093F4034091F5045091F6046091A8
:1030F000F7047091F804411551056105710509F453
:1031000050C08091F9049091FA04A091FB04B09111
:10311000FC04841B950BA60BB70B8038934CA94C71
:10312000B14000F51E9AC0EFD3E0AFEEB4E0E9EE97
:10313000F4E0899199912D913C9111978217930711
:103140001CF411969C938E932081318128173907A6
:1031500014F4918380831296329683E0C63FD80799
:1031600041F71FC01092F5041092F6041092F70474
:103170001092F804EFEEF4E0C9EED4E0AEE4B3E070
:103180008191919129913991820F931F95958795FE
:103190008D939D9324E0E53FF20791F781E00E9433
:1031A0007B0181E001C080E0DF91CF911F910F9101
:1031B000FF90EF90089564E670E080E090E00E9458
:1031C000191B0E94E71464E670E080E090E00E9422
:1031D000191B0E945C170E9499170E941017E6ECB9
:1031E000F3E080818460808308951F920F920FB670
:1031F0000F9211240BB60F928F939F93EF93FF932F
:103200008091260690912806981771F08F5F87FDB0
:1032100080E0E82FF0E0EE0FFF1FEA5DFA4F9081AB
:103220009093C6008093260690912806891305C0C6
:103230008091C1008F7D8093C100FF91EF919F919C
:103240008F910F900BBE0F900FBE0F901F9018958F
:103250001F920F920FB60F9211240BB60F928F93FD
:103260009F93EF93FF9380912706909129069817DB
:1032700071F08F5F87FD80E0E82FF0E0EE0FFF1F19
:10328000EA5DFA4F91819093CE008093270690914A
:103290002906891305C08091C9008F7D8093C900DC
:1032A000FF91EF919F918F910F900BBE0F900FBEEA
:1032B0000F901F901895882319F0813039F00895E8
:1032C0008091C10080628093C10008958091C900FF
:1032D00080628093C9000895CF92DF92EF92FF92AF
:1032E000CF93C82F9A01AB0160E079E08DE390E0C5
:1032F0000E94881E21503109410951095695479570
:1033000037952795C32ED42EE52EFF24CC2379F0B4
:10331000C130C9F482E08093C800C092CD002093F0
:10332000CC008091C90088698093C9000CC082E0FC
:103330008093C000C092C5002093C4008091C1005A
:1033400088698093C100CF91FF90EF90DF90CF907C
:103350000895CF93DF93E62FF0E0DF01A455B94F36
:103360009C919F5F903408F090E0EF01C655D94FD3
:103370002881921749F02C91E20FF11DE20FF11D07
:10338000E65DF94F80839C93DF91CF9108951F9262
:103390000F920FB60F9211240BB60F922F933F93FB
:1033A0004F935F936F937F938F939F93AF93BF934D
:1033B000EF93FF938091C60060E00E94A919FF91EE
:1033C000EF91BF91AF919F918F917F916F915F919D
:1033D0004F913F912F910F900BBE0F900FBE0F900A
:1033E0001F9018951F920F920FB60F9211240BB6D3
:1033F0000F922F933F934F935F936F937F938F938E
:103400009F93AF93BF93EF93FF938091CE0061E0C2
:103410000E94A919FF91EF91BF91AF919F918F9158
:103420007F916F915F914F913F912F910F900BBEC4
:103430000F900FBE0F901F901895282F30E0D901E4
:10344000A655B94F9C91F901E90FF11DE90FF11D46
:10345000E65DF94F8081F901E455F94F2081291784
:1034600029F09F5F903408F090E09C930895282FF6
:1034700030E0F901E455F94F8081F901E655F94F43
:103480009081891B8F730895282F30E0F901E85D42
:10349000F94F8081F901EA5DF94F9081891B8F779F
:1034A0000895E82FF0E0DF01A85DB94F8C918F5FA0
:1034B00087FD80E0E80FF11DE80FF11DEA5DFA4F8E
:1034C00060838C930895CF93C82F0E94511A8C2F3C
:1034D000CF910C945B190F931F93CF93DF93CDB7CC
:1034E000DEB7C058D1090FB6F894DEBF0FBECDBF0E
:1034F000FE01E957FF4F419151919F0160E870E053
:10350000CE0101960E94201F8E010F5F1F4FF80110
:1035100061918F01662321F081E00E94631AF7CF49
:10352000C058DF4F0FB6F894DEBF0FBECDBFDF919E
:10353000CF911F910F91089508950E94531B0E94EF
:103540009C1A0E94770AC0E0D0E00E94F30A2097FC
:10355000E1F30E940000F9CF1F920F920FB60F9275
:1035600011242F933F938F939F93AF93BF93809199
:10357000AF069091B006A091B106B091B20630911D
:10358000AE0623E0230F2D3720F40196A11DB11DB7
:1035900005C026E8230F0296A11DB11D2093AE069B
:1035A0008093AF069093B006A093B106B093B20695
:1035B0008091B3069091B406A091B506B091B6067D
:1035C0000196A11DB11D8093B3069093B406A093FC
:1035D000B506B093B606BF91AF919F918F913F9181
:1035E0002F910F900FBE0F901F9018953FB7F89432
:1035F0008091B3069091B406A091B506B091B6063D
:1036000026B5A89B05C02F3F19F00196A11DB11D3D
:103610003FBF6627782F892F9A2F620F711D811D5A
:10362000911D42E0660F771F881F991F4A95D1F7B9
:1036300008958F929F92AF92BF92CF92DF92EF92B6
:10364000FF926B017C010E94F61A4B015C01C114D0
:10365000D104E104F104F1F00E94EE1B0E94F61A7D
:10366000681979098A099B09683E734081059105AB
:1036700070F321E0C21AD108E108F10888EE880E43
:1036800083E0981EA11CB11CC114D104E104F10413
:1036900029F7DDCFFF90EF90DF90CF90BF90AF90F4
:1036A0009F908F900895789484B5826084BD84B58E
:1036B000816084BD85B5826085BD85B5816085BD2D
:1036C000EEE6F0E0808181608083E1E8F0E0108246
:1036D000808182608083808181608083E0E8F0E087
:1036E000808181608083E1EBF0E080818460808371
:1036F000E0EBF0E0808181608083E1E9F0E08081AF
:1037000082608083808181608083E0E9F0E0808155
:1037100081608083E1EAF0E0808182608083808143
:1037200081608083E0EAF0E0808181608083E1E273
:10373000F1E0808182608083808181608083E0E22B
:10374000F1E0808181608083EAE7F0E0808184603D
:10375000808380818260808380818160808380819A
:10376000806880831092C1000895CF93DF9390E02A
:10377000FC01E456FE4F2491FC01E054FE4F84917D
:10378000882349F190E0880F991FFC01E250FE4F19
:10379000A591B4918C519E4FFC01C591D4919FB7D6
:1037A000611108C0F8948C91209582238C938881B4
:1037B00082230AC0623051F4F8948C91322F3095F4
:1037C00083238C938881822B888304C0F8948C9106
:1037D000822B8C939FBFDF91CF910895089550580D
:1037E000BB27AA270ED078C141D130F046D120F0B6
:1037F00031F49F3F11F41EF436C10EF4E095E7FB5F
:103800002CC1E92F8BD180F3BA17620773078407A5
:10381000950718F071F49EF5A3C10EF4E0950B2EF8
:10382000BA2FA02D0B01B90190010C01CA01A00112
:103830001124FF27591B99F0593F50F4503E68F16D
:103840001A16F040A22F232F342F4427585FF3CFAE
:10385000469537952795A795F0405395C9F77EF47F
:103860001F16BA0B620B730B840BBAF09150A1F0C8
:10387000FF0FBB1F661F771F881FC2F70EC0BA0F4E
:10388000621F731F841F48F4879577956795B795D6
:10389000F7959E3F08F0B3CF9395880F08F09927CE
:1038A000EE0F979587950895F0D0E39526C10CD03B
:1038B00013C1E3D040F0DAD030F021F45F3F19F0CB
:1038C000CCC051114EC1CFC029D198F39923C9F36F
:1038D0005523B1F3951B550BBB27AA276217730716
:1038E000840738F09F5F5F4F220F331F441FAA1FCA
:1038F000A9F333D00E2E3AF0E0E830D0915050408A
:10390000E695001CCAF729D0FE2F27D0660F771F37
:10391000881FBB1F261737074807AB07B0E809F019
:10392000BB0B802DBF01FF2793585F4F2AF09E3FAE
:10393000510568F092C015C15F3FECF3983EDCF38F
:10394000869577956795B795F7959F5FC9F7880F27
:10395000911D9695879597F90895E1E0660F771F79
:10396000881FBB1F621773078407BA0720F0621B0A
:10397000730B840BBA0BEE1F88F7E095089504D003
:103980006894B111EEC00895D1D088F09F5790F09F
:10399000B92F9927B751A0F0D1F0660F771F881F74
:1039A000991F1AF0BA95C9F712C0B13081F0D8D07A
:1039B000B1E00895D5C0672F782F8827B85F39F018
:1039C000B93FCCF3869577956795B395D9F73EF4D3
:1039D00090958095709561957F4F8F4F9F4F08957B
:1039E000E89409C097FB3EF4909580957095619599
:1039F0007F4F8F4F9F4F9923A9F0F92F96E9BB274F
:103A00009395F695879577956795B795F111F8CFCA
:103A1000FAF4BB0F11F460FF1BC06F5F7F4F8F4F35
:103A20009F4F16C0882311F096E911C0772321F02B
:103A30009EE8872F762F05C0662371F096E8862FC3
:103A400070E060E02AF09A95660F771F881FDAF71A
:103A5000880F9695879597F9089597F99F6780E85D
:103A600070E060E008959FEF80EC089500240A94D0
:103A70001616170618060906089500240A94121649
:103A80001306140605060895EECF50D0E8F3E89427
:103A9000E0E0BB279F57F0F02AED3FE049EC06C07D
:103AA000EE0FBB0F661F771F881F28F0B23A620720
:103AB0007307840728F0B25A620B730B840BE395EB
:103AC0009A9572F7803830F49A95BB0F661F771F6E
:103AD000881FD2F79048B6C0092E0394000C11F449
:103AE000882352F0BB0F40F4BF2B11F460FF04C0D9
:103AF0006F5F7F4F8F4F9F4F0895EF93E0FF06C09A
:103B0000A2EA2AED3FE049EC5FEB7BDEE5DF0F90B8
:103B1000039401FC9058E0E2F1E0A0C057FD9058FA
:103B2000440F551F59F05F3F71F04795880F97FB81
:103B3000991F61F09F3F79F087950895121613063B
:103B40001406551FF2CF4695F1DF08C0161617066A
:103B50001806991FF1CF869571056105089408959F
:103B6000E894BB2766277727CB0197F908950BD0F8
:103B7000B3CF7CDF28F081DF18F0952309F06DCFFB
:103B800072CF1124EECFCADFA0F3959FD1F3950F2A
:103B900050E0551F629FF001729FBB27F00DB11DD1
:103BA000639FAA27F00DB11DAA1F649F6627B00D61
:103BB000A11D661F829F2227B00DA11D621F739F4A
:103BC000B00DA11D621F839FA00D611D221F749F58
:103BD0003327A00D611D231F849F600D211D822F9F
:103BE000762F6A2F11249F5750408AF0E1F08823E6
:103BF0004AF0EE0FFF1FBB1F661F771F881F9150F3
:103C00005040A9F79E3F510570F027CFAACF5F3FE4
:103C1000ECF3983EDCF3869577956795B795F79525
:103C2000E7959F5FC1F7FE2B880F911D96958795AD
:103C300097F908959F9329DF0F9007FCEE5F5DCF02
:103C40009F3F31F0915020F4879577956795B79510
:103C5000880F911D9695879597F908959F938F9357
:103C60007F936F93FF93EF939B01AC0180DFEF9104
:103C7000FF9105D02F913F914F915F9178CFDF93C6
:103C8000CF931F930F93FF92EF92DF927B018C01F2
:103C9000689405C0DA2EEF0176DFFE01E894A59165
:103CA0002591359145915591AEF3EF01AADDFE01C5
:103CB0009701A801DA9479F7DF90EF90FF900F91C8
:103CC0001F91CF91DF910895DB018F939F930E9405
:103CD000E71EBF91AF91A29F800D911DA39F900DF4
:103CE000B29F900D1124089597FB072E16F40094AF
:103CF00007D077FD09D00E94FA1E07FC05D03EF4DC
:103D0000909581959F4F0895709561957F4F089587
:103D1000A1E21A2EAA1BBB1BFD010DC0AA1FBB1FCF
:103D2000EE1FFF1FA217B307E407F50720F0A21B41
:103D3000B30BE40BF50B661F771F881F991F1A94AE
:103D400069F760957095809590959B01AC01BD01D8
:103D5000CF010895052E97FB1EF400940E94C11E0A
:103D600057FD07D00E94881E07FC03D04EF40C9428
:103D7000C11E50954095309521953F4F4F4F5F4F55
:103D8000089590958095709561957F4F8F4F9F4FC7
:103D900008950E94D11E332312F48A1B9B0B0C94AE
:103DA000E21EA29FB001B39FC001A39F700D811DB1
:103DB0001124911DB29F700D811D1124911D089534
:103DC0000E94D11EB7FF0895821B930B08950E9495
:103DD000D11EA59F900DB49F900DA49F800D911DA5
:103DE00011240895B7FF0C94E71E0E94E71E821B62
:103DF000930B0895AA1BBB1B51E107C0AA1FBB1F51
:103E0000A617B70710F0A61BB70B881F991F5A9566
:103E1000A9F780959095BC01CD010895FC0105900E
:103E20000020E9F7809590958E0F9F1F0895FB0164
:103E3000DC0102C001900D9241505040D8F7089526
:103E40000F931F93CF93DF93CDB7DEB72E970FB6A7
:103E5000F894DEBF0FBECDBF8C01CA0146E04C8393
:103E60001A83098377FF02C060E070E8615071092E
:103E70007E836D83A901BC01CE0101960E94591F6A
:103E80004D815E8157FD0AC02F8138854217530747
:103E90000CF49A01F801E20FF31F10822E960FB670
:103EA000F894DEBF0FBECDBFDF91CF911F910F9170
:103EB00008952F923F924F925F926F927F928F92CE
:103EC0009F92AF92BF92CF92DF92EF92FF920F93A9
:103ED0001F93CF93DF93CDB7DEB72C970FB6F8942F
:103EE000DEBF0FBECDBF7C016B018A01FC011782D2
:103EF0001682838181FFBDC1CE0101964C01F7017D
:103F00009381F60193FD859193FF81916F01882341
:103F100009F4ABC1853239F493FD859193FF81910A
:103F20006F01853229F4B70190E00E949221E7CF1A
:103F3000512C312C20E02032A0F48B3269F030F487
:103F4000803259F0833269F420612CC08D3239F00F
:103F5000803339F4216026C02260246023C02860A9
:103F600021C027FD27C030ED380F3A3078F426FF06
:103F700006C0FAE05F9E300D1124532E13C08AE074
:103F8000389E300D1124332E20620CC08E3221F465
:103F900026FD6BC1206406C08C3611F4206802C077
:103FA000883641F4F60193FD859193FF81916F016D
:103FB0008111C1CF982F9F7D9554933028F40C5FC9
:103FC0001F4FFFE3F9830DC0833631F0833771F063
:103FD000833509F05BC022C0F801808189830E5FC0
:103FE0001F4F44244394512C540115C03801F2E072
:103FF0006F0E711CF801A080B18026FF03C0652DF3
:1040000070E002C06FEF7FEFC5012C870E9487210F
:104010002C0183012C852F77222E17C03801F2E066
:104020006F0E711CF801A080B18026FF03C0652DC2
:1040300070E002C06FEF7FEFC5012C870E947C21EA
:104040002C012C852068222E830123FC1BC0832D8C
:1040500090E048165906B0F4B70180E290E00E9463
:1040600092213A94F4CFF50127FC859127FE8191A6
:104070005F01B70190E00E94922131103A94F1E083
:104080004F1A51084114510471F7E5C0843611F0FC
:10409000893639F5F80127FF07C060817181828177
:1040A00093810C5F1F4F08C060817181882777FD65
:1040B0008095982F0E5F1F4F2F76B22E97FF09C065
:1040C00090958095709561957F4F8F4F9F4F206899
:1040D000B22E2AE030E0A4010E94C421A82EA81824
:1040E00044C0853729F42F7EB22E2AE030E025C067
:1040F000F22FF97FBF2E8F36C1F018F4883579F092
:10410000B4C0803719F0883721F0AFC02F2F20615D
:10411000B22EB4FE0DC08B2D8460B82E09C024FFD2
:104120000AC09F2F9660B92E06C028E030E005C077
:1041300020E130E002C020E132E0F801B7FE07C024
:1041400060817181828193810C5F1F4F06C0608105
:10415000718180E090E00E5F1F4FA4010E94C42196
:10416000A82EA818FB2DFF77BF2EB6FE0BC02B2D57
:104170002E7FA51450F4B4FE0AC0B2FC08C02B2D4B
:104180002E7E05C07A2C2B2D03C07A2C01C0752CF5
:1041900024FF0DC0FE01EA0DF11D8081803311F472
:1041A000297E09C022FF06C07394739404C0822F35
:1041B000867809F0739423FD13C020FF06C05A2CA3
:1041C000731418F4530C5718732C731468F4B70154
:1041D00080E290E02C870E94922173942C85F5CF89
:1041E000731410F4371801C0312C24FF12C0B7012A
:1041F00080E390E02C870E9492212C8522FF17C03B
:1042000021FF03C088E590E002C088E790E0B70195
:104210000CC0822F867859F021FD02C080E201C0D7
:104220008BE227FD8DE2B70190E00E949221A51458
:1042300038F4B70180E390E00E9492215A94F7CFBE
:10424000AA94F401EA0DF11D8081B70190E00E946B
:104250009221A110F5CF332009F451CEB70180E2AD
:1042600090E00E9492213A94F6CFF70186819781DF
:1042700002C08FEF9FEF2C960FB6F894DEBF0FBEF3
:10428000CDBFDF91CF911F910F91FF90EF90DF9005
:10429000CF90BF90AF909F908F907F906F905F90E6
:1042A0004F903F902F900895DC01CB01FC01F999CC
:1042B000FECF06C0F2BDE1BDF89A319600B40D9272
:1042C00041505040B8F70895DC01CB0103C02D9157
:1042D0000E946F2141505040D0F70895262FF99940
:1042E000FECF1FBA92BD81BD20BD0FB6F894FA9AD9
:1042F000F99A0FBE01960895FC0105906150704037
:104300000110D8F7809590958E0F9F1F0895FC019E
:104310006150704001900110D8F7809590958E0FF4
:104320009F1F08950F931F93CF93DF93182F092F8B
:10433000EB018B8181FD03C08FEF9FEF20C082FFD7
:1043400010C04E815F812C813D81421753077CF460
:10435000E881F9819F012F5F3F4F398328831083C4
:1043600006C0E885F985812F0995892B29F72E81CB
:104370003F812F5F3F4F3F832E83812F902FDF910F
:10438000CF911F910F910895FA01AA27283051F17A
:10439000203181F1E8946F936E7F6E5F7F4F8F4F76
:1043A0009F4FAF4FB1E03ED0B4E03CD0670F781FD5
:1043B000891F9A1FA11D680F791F8A1F911DA11DBA
:1043C0006A0F711D811D911DA11D20D009F46894F3
:1043D0003F912AE0269F11243019305D3193DEF69B
:1043E000CF010895462F4770405D4193B3E00FD051
:1043F000C9F7F6CF462F4F70405D4A3318F0495D3C
:1044000031FD4052419302D0A9F7EACFB4E0A6951E
:104410009795879577956795BA95C9F70097610540
:10442000710508959B01AC010A2E06945795479596
:1044300037952795BA95C9F7620F731F841F951F8B
:08444000A01D0895F894FFCFC0
:10444800000000000000000001000000DC05DC05A1
:10445800DC05DC05DC05DC05DC05E8036408030590
:104468000406051C0C43616C63756C204570726F03
:104478006D203D2025642C205265616420636F6E99
:1044880066203D202564200A0D004C6F6164696E2A
:0E449800672044656661756C74730A0D000040
:00000001FF
